{
  "address": "0xC59aC72feF39e8f3967baAD6b7F60DaE49Fba973",
  "abi": [
    {
      "inputs": [
        {
          "internalType": "uint256",
          "name": "preMint",
          "type": "uint256"
        },
        {
          "internalType": "uint256",
          "name": "maxSupply",
          "type": "uint256"
        },
        {
          "internalType": "string",
          "name": "name",
          "type": "string"
        },
        {
          "internalType": "string",
          "name": "symbol",
          "type": "string"
        },
        {
          "internalType": "uint256",
          "name": "valueInEth",
          "type": "uint256"
        },
        {
          "internalType": "uint256",
          "name": "icoStartBlock",
          "type": "uint256"
        },
        {
          "internalType": "uint256",
          "name": "icoDurationBlocks",
          "type": "uint256"
        },
        {
          "internalType": "uint16",
          "name": "taxBasisPoints",
          "type": "uint16"
        },
        {
          "internalType": "address",
          "name": "taxAddress",
          "type": "address"
        },
        {
          "internalType": "address",
          "name": "insiderAddress",
          "type": "address"
        }
      ],
      "stateMutability": "nonpayable",
      "type": "constructor"
    },
    {
      "inputs": [],
      "name": "IcoToken_ICOIsOver",
      "type": "error"
    },
    {
      "anonymous": false,
      "inputs": [
        {
          "indexed": true,
          "internalType": "address",
          "name": "owner",
          "type": "address"
        },
        {
          "indexed": true,
          "internalType": "address",
          "name": "spender",
          "type": "address"
        },
        {
          "indexed": false,
          "internalType": "uint256",
          "name": "value",
          "type": "uint256"
        }
      ],
      "name": "Approval",
      "type": "event"
    },
    {
      "anonymous": false,
      "inputs": [
        {
          "indexed": true,
          "internalType": "address",
          "name": "previousOwner",
          "type": "address"
        },
        {
          "indexed": true,
          "internalType": "address",
          "name": "newOwner",
          "type": "address"
        }
      ],
      "name": "OwnershipTransferred",
      "type": "event"
    },
    {
      "anonymous": false,
      "inputs": [
        {
          "indexed": false,
          "internalType": "address",
          "name": "account",
          "type": "address"
        }
      ],
      "name": "Paused",
      "type": "event"
    },
    {
      "anonymous": false,
      "inputs": [
        {
          "indexed": true,
          "internalType": "address",
          "name": "from",
          "type": "address"
        },
        {
          "indexed": true,
          "internalType": "address",
          "name": "to",
          "type": "address"
        },
        {
          "indexed": false,
          "internalType": "uint256",
          "name": "value",
          "type": "uint256"
        }
      ],
      "name": "Transfer",
      "type": "event"
    },
    {
      "anonymous": false,
      "inputs": [
        {
          "indexed": false,
          "internalType": "address",
          "name": "account",
          "type": "address"
        }
      ],
      "name": "Unpaused",
      "type": "event"
    },
    {
      "stateMutability": "payable",
      "type": "fallback"
    },
    {
      "inputs": [
        {
          "internalType": "address",
          "name": "owner",
          "type": "address"
        },
        {
          "internalType": "address",
          "name": "spender",
          "type": "address"
        }
      ],
      "name": "allowance",
      "outputs": [
        {
          "internalType": "uint256",
          "name": "",
          "type": "uint256"
        }
      ],
      "stateMutability": "view",
      "type": "function"
    },
    {
      "inputs": [
        {
          "internalType": "address",
          "name": "spender",
          "type": "address"
        },
        {
          "internalType": "uint256",
          "name": "amount",
          "type": "uint256"
        }
      ],
      "name": "approve",
      "outputs": [
        {
          "internalType": "bool",
          "name": "",
          "type": "bool"
        }
      ],
      "stateMutability": "nonpayable",
      "type": "function"
    },
    {
      "inputs": [
        {
          "internalType": "address",
          "name": "account",
          "type": "address"
        }
      ],
      "name": "balanceOf",
      "outputs": [
        {
          "internalType": "uint256",
          "name": "",
          "type": "uint256"
        }
      ],
      "stateMutability": "view",
      "type": "function"
    },
    {
      "inputs": [
        {
          "internalType": "uint256",
          "name": "amount",
          "type": "uint256"
        }
      ],
      "name": "burn",
      "outputs": [],
      "stateMutability": "nonpayable",
      "type": "function"
    },
    {
      "inputs": [
        {
          "internalType": "address",
          "name": "account",
          "type": "address"
        },
        {
          "internalType": "uint256",
          "name": "amount",
          "type": "uint256"
        }
      ],
      "name": "burnFrom",
      "outputs": [],
      "stateMutability": "nonpayable",
      "type": "function"
    },
    {
      "inputs": [],
      "name": "cap",
      "outputs": [
        {
          "internalType": "uint256",
          "name": "",
          "type": "uint256"
        }
      ],
      "stateMutability": "view",
      "type": "function"
    },
    {
      "inputs": [],
      "name": "decimals",
      "outputs": [
        {
          "internalType": "uint8",
          "name": "",
          "type": "uint8"
        }
      ],
      "stateMutability": "view",
      "type": "function"
    },
    {
      "inputs": [
        {
          "internalType": "address",
          "name": "spender",
          "type": "address"
        },
        {
          "internalType": "uint256",
          "name": "subtractedValue",
          "type": "uint256"
        }
      ],
      "name": "decreaseAllowance",
      "outputs": [
        {
          "internalType": "bool",
          "name": "",
          "type": "bool"
        }
      ],
      "stateMutability": "nonpayable",
      "type": "function"
    },
    {
      "inputs": [],
      "name": "getIcoDurationBlocks",
      "outputs": [
        {
          "internalType": "uint256",
          "name": "",
          "type": "uint256"
        }
      ],
      "stateMutability": "view",
      "type": "function"
    },
    {
      "inputs": [],
      "name": "getIcoStartBlock",
      "outputs": [
        {
          "internalType": "uint256",
          "name": "",
          "type": "uint256"
        }
      ],
      "stateMutability": "view",
      "type": "function"
    },
    {
      "inputs": [],
      "name": "getTaxAddress",
      "outputs": [
        {
          "internalType": "address",
          "name": "",
          "type": "address"
        }
      ],
      "stateMutability": "view",
      "type": "function"
    },
    {
      "inputs": [],
      "name": "getTaxBasisPoints",
      "outputs": [
        {
          "internalType": "uint16",
          "name": "",
          "type": "uint16"
        }
      ],
      "stateMutability": "view",
      "type": "function"
    },
    {
      "inputs": [],
      "name": "getValueInEth",
      "outputs": [
        {
          "internalType": "uint256",
          "name": "",
          "type": "uint256"
        }
      ],
      "stateMutability": "view",
      "type": "function"
    },
    {
      "inputs": [
        {
          "internalType": "address",
          "name": "spender",
          "type": "address"
        },
        {
          "internalType": "uint256",
          "name": "addedValue",
          "type": "uint256"
        }
      ],
      "name": "increaseAllowance",
      "outputs": [
        {
          "internalType": "bool",
          "name": "",
          "type": "bool"
        }
      ],
      "stateMutability": "nonpayable",
      "type": "function"
    },
    {
      "inputs": [],
      "name": "mint",
      "outputs": [],
      "stateMutability": "payable",
      "type": "function"
    },
    {
      "inputs": [],
      "name": "name",
      "outputs": [
        {
          "internalType": "string",
          "name": "",
          "type": "string"
        }
      ],
      "stateMutability": "view",
      "type": "function"
    },
    {
      "inputs": [],
      "name": "owner",
      "outputs": [
        {
          "internalType": "address",
          "name": "",
          "type": "address"
        }
      ],
      "stateMutability": "view",
      "type": "function"
    },
    {
      "inputs": [],
      "name": "pause",
      "outputs": [],
      "stateMutability": "nonpayable",
      "type": "function"
    },
    {
      "inputs": [],
      "name": "paused",
      "outputs": [
        {
          "internalType": "bool",
          "name": "",
          "type": "bool"
        }
      ],
      "stateMutability": "view",
      "type": "function"
    },
    {
      "inputs": [],
      "name": "renounceOwnership",
      "outputs": [],
      "stateMutability": "nonpayable",
      "type": "function"
    },
    {
      "inputs": [
        {
          "internalType": "address",
          "name": "newTaxAddress",
          "type": "address"
        }
      ],
      "name": "setTaxAddress",
      "outputs": [],
      "stateMutability": "nonpayable",
      "type": "function"
    },
    {
      "inputs": [],
      "name": "symbol",
      "outputs": [
        {
          "internalType": "string",
          "name": "",
          "type": "string"
        }
      ],
      "stateMutability": "view",
      "type": "function"
    },
    {
      "inputs": [],
      "name": "totalSupply",
      "outputs": [
        {
          "internalType": "uint256",
          "name": "",
          "type": "uint256"
        }
      ],
      "stateMutability": "view",
      "type": "function"
    },
    {
      "inputs": [
        {
          "internalType": "address",
          "name": "to",
          "type": "address"
        },
        {
          "internalType": "uint256",
          "name": "amount",
          "type": "uint256"
        }
      ],
      "name": "transfer",
      "outputs": [
        {
          "internalType": "bool",
          "name": "",
          "type": "bool"
        }
      ],
      "stateMutability": "nonpayable",
      "type": "function"
    },
    {
      "inputs": [
        {
          "internalType": "address",
          "name": "from",
          "type": "address"
        },
        {
          "internalType": "address",
          "name": "to",
          "type": "address"
        },
        {
          "internalType": "uint256",
          "name": "amount",
          "type": "uint256"
        }
      ],
      "name": "transferFrom",
      "outputs": [
        {
          "internalType": "bool",
          "name": "",
          "type": "bool"
        }
      ],
      "stateMutability": "nonpayable",
      "type": "function"
    },
    {
      "inputs": [
        {
          "internalType": "address",
          "name": "newOwner",
          "type": "address"
        }
      ],
      "name": "transferOwnership",
      "outputs": [],
      "stateMutability": "nonpayable",
      "type": "function"
    },
    {
      "inputs": [],
      "name": "unpause",
      "outputs": [],
      "stateMutability": "nonpayable",
      "type": "function"
    },
    {
      "stateMutability": "payable",
      "type": "receive"
    }
  ],
  "transactionHash": "0xc274507bbcea99816eec812310e4ff38c1a8706a1a96f6082e52d1a35e9211f6",
  "args": [
    2100000,
    21000000,
    "IcoToken",
    "TKN",
    100,
    0,
    50,
    100,
    "0x522652EB897Ced74725218b4C33F6C3C1Caf525D",
    "0x522652EB897Ced74725218b4C33F6C3C1Caf525D"
  ],
  "numDeployments": 1,
  "solcInputHash": "9052b1ce026127d290c286229db347de",
  "bytecode": "0x6101206040523480156200001257600080fd5b5060405162004b2438038062004b24833981810160405281019062000038919062000802565b62000048620001c660201b60201c565b600a62000056919062000ac6565b8962000063919062000b17565b8888816003908162000076919062000da3565b50806004908162000088919062000da3565b50505060008111620000d1576040517f08c379a0000000000000000000000000000000000000000000000000000000008152600401620000c89062000eeb565b60405180910390fd5b8060808181525050506000600560006101000a81548160ff0219169083151502179055506200011562000109620001cf60201b60201c565b620001d760201b60201c565b620001278a826200029d60201b60201c565b8560a08181525050600085036200013c574394505b8460c081815250508360e081815250506127108361ffff161162000161578262000165565b6127105b61ffff166101008161ffff168152505081600660006101000a81548173ffffffffffffffffffffffffffffffffffffffff021916908373ffffffffffffffffffffffffffffffffffffffff16021790555050505050505050505050620010cd565b60006012905090565b600033905090565b6000600560019054906101000a900473ffffffffffffffffffffffffffffffffffffffff16905081600560016101000a81548173ffffffffffffffffffffffffffffffffffffffff021916908373ffffffffffffffffffffffffffffffffffffffff1602179055508173ffffffffffffffffffffffffffffffffffffffff168173ffffffffffffffffffffffffffffffffffffffff167f8be0079c531659141344cd1fd0a4f28419497f9722a3daafe3b4186f6b6457e060405160405180910390a35050565b60006301da9c0042620002b1919062000f0d565b905060006301da9c0090506000838383604051620002cf9062000582565b620002dd9392919062000f7e565b604051809103906000f080158015620002fa573d6000803e3d6000fd5b509050620003398162000312620001c660201b60201c565b600a62000320919062000ac6565b876200032d919062000b17565b6200034060201b60201c565b5050505050565b6200035782826200035b60201b62000cb41760201c565b5050565b6200036b620003ec60201b60201c565b8162000381620003f660201b620007fa1760201c565b6200038d919062000f0d565b1115620003d1576040517f08c379a0000000000000000000000000000000000000000000000000000000008152600401620003c8906200100b565b60405180910390fd5b620003e882826200040060201b62000d1e1760201c565b5050565b6000608051905090565b6000600254905090565b600073ffffffffffffffffffffffffffffffffffffffff168273ffffffffffffffffffffffffffffffffffffffff160362000472576040517f08c379a000000000000000000000000000000000000000000000000000000000815260040162000469906200107d565b60405180910390fd5b62000486600083836200057860201b60201c565b80600260008282546200049a919062000f0d565b92505081905550806000808473ffffffffffffffffffffffffffffffffffffffff1673ffffffffffffffffffffffffffffffffffffffff1681526020019081526020016000206000828254620004f1919062000f0d565b925050819055508173ffffffffffffffffffffffffffffffffffffffff16600073ffffffffffffffffffffffffffffffffffffffff167fddf252ad1be2c89b69c2b068fc378daa952ba7f163c4a11628f55a4df523b3ef83604051620005589190620010b0565b60405180910390a362000574600083836200057d60201b60201c565b5050565b505050565b505050565b611496806200368e83390190565b6000604051905090565b600080fd5b600080fd5b6000819050919050565b620005b981620005a4565b8114620005c557600080fd5b50565b600081519050620005d981620005ae565b92915050565b600080fd5b600080fd5b6000601f19601f8301169050919050565b7f4e487b7100000000000000000000000000000000000000000000000000000000600052604160045260246000fd5b6200063482620005e9565b810181811067ffffffffffffffff82111715620006565762000655620005fa565b5b80604052505050565b60006200066b62000590565b905062000679828262000629565b919050565b600067ffffffffffffffff8211156200069c576200069b620005fa565b5b620006a782620005e9565b9050602081019050919050565b60005b83811015620006d4578082015181840152602081019050620006b7565b60008484015250505050565b6000620006f7620006f1846200067e565b6200065f565b905082815260208101848484011115620007165762000715620005e4565b5b62000723848285620006b4565b509392505050565b600082601f830112620007435762000742620005df565b5b815162000755848260208601620006e0565b91505092915050565b600061ffff82169050919050565b62000777816200075e565b81146200078357600080fd5b50565b60008151905062000797816200076c565b92915050565b600073ffffffffffffffffffffffffffffffffffffffff82169050919050565b6000620007ca826200079d565b9050919050565b620007dc81620007bd565b8114620007e857600080fd5b50565b600081519050620007fc81620007d1565b92915050565b6000806000806000806000806000806101408b8d0312156200082957620008286200059a565b5b6000620008398d828e01620005c8565b9a505060206200084c8d828e01620005c8565b99505060408b015167ffffffffffffffff81111562000870576200086f6200059f565b5b6200087e8d828e016200072b565b98505060608b015167ffffffffffffffff811115620008a257620008a16200059f565b5b620008b08d828e016200072b565b9750506080620008c38d828e01620005c8565b96505060a0620008d68d828e01620005c8565b95505060c0620008e98d828e01620005c8565b94505060e0620008fc8d828e0162000786565b935050610100620009108d828e01620007eb565b925050610120620009248d828e01620007eb565b9150509295989b9194979a5092959850565b7f4e487b7100000000000000000000000000000000000000000000000000000000600052601160045260246000fd5b60008160011c9050919050565b6000808291508390505b6001851115620009c4578086048111156200099c576200099b62000936565b5b6001851615620009ac5780820291505b8081029050620009bc8562000965565b94506200097c565b94509492505050565b600082620009df576001905062000ab2565b81620009ef576000905062000ab2565b816001811462000a08576002811462000a135762000a49565b600191505062000ab2565b60ff84111562000a285762000a2762000936565b5b8360020a91508482111562000a425762000a4162000936565b5b5062000ab2565b5060208310610133831016604e8410600b841016171562000a835782820a90508381111562000a7d5762000a7c62000936565b5b62000ab2565b62000a92848484600162000972565b9250905081840481111562000aac5762000aab62000936565b5b81810290505b9392505050565b600060ff82169050919050565b600062000ad382620005a4565b915062000ae08362000ab9565b925062000b0f7fffffffffffffffffffffffffffffffffffffffffffffffffffffffffffffffff8484620009cd565b905092915050565b600062000b2482620005a4565b915062000b3183620005a4565b925082820262000b4181620005a4565b9150828204841483151762000b5b5762000b5a62000936565b5b5092915050565b600081519050919050565b7f4e487b7100000000000000000000000000000000000000000000000000000000600052602260045260246000fd5b6000600282049050600182168062000bb557607f821691505b60208210810362000bcb5762000bca62000b6d565b5b50919050565b60008190508160005260206000209050919050565b60006020601f8301049050919050565b600082821b905092915050565b60006008830262000c357fffffffffffffffffffffffffffffffffffffffffffffffffffffffffffffffff8262000bf6565b62000c41868362000bf6565b95508019841693508086168417925050509392505050565b6000819050919050565b600062000c8462000c7e62000c7884620005a4565b62000c59565b620005a4565b9050919050565b6000819050919050565b62000ca08362000c63565b62000cb862000caf8262000c8b565b84845462000c03565b825550505050565b600090565b62000ccf62000cc0565b62000cdc81848462000c95565b505050565b5b8181101562000d045762000cf860008262000cc5565b60018101905062000ce2565b5050565b601f82111562000d535762000d1d8162000bd1565b62000d288462000be6565b8101602085101562000d38578190505b62000d5062000d478562000be6565b83018262000ce1565b50505b505050565b600082821c905092915050565b600062000d786000198460080262000d58565b1980831691505092915050565b600062000d93838362000d65565b9150826002028217905092915050565b62000dae8262000b62565b67ffffffffffffffff81111562000dca5762000dc9620005fa565b5b62000dd6825462000b9c565b62000de382828562000d08565b600060209050601f83116001811462000e1b576000841562000e06578287015190505b62000e12858262000d85565b86555062000e82565b601f19841662000e2b8662000bd1565b60005b8281101562000e555784890151825560018201915060208501945060208101905062000e2e565b8683101562000e75578489015162000e71601f89168262000d65565b8355505b6001600288020188555050505b505050505050565b600082825260208201905092915050565b7f45524332304361707065643a2063617020697320300000000000000000000000600082015250565b600062000ed360158362000e8a565b915062000ee08262000e9b565b602082019050919050565b6000602082019050818103600083015262000f068162000ec4565b9050919050565b600062000f1a82620005a4565b915062000f2783620005a4565b925082820190508082111562000f425762000f4162000936565b5b92915050565b62000f5381620007bd565b82525050565b600067ffffffffffffffff82169050919050565b62000f788162000f59565b82525050565b600060608201905062000f95600083018662000f48565b62000fa4602083018562000f6d565b62000fb3604083018462000f6d565b949350505050565b7f45524332304361707065643a2063617020657863656564656400000000000000600082015250565b600062000ff360198362000e8a565b9150620010008262000fbb565b602082019050919050565b60006020820190508181036000830152620010268162000fe4565b9050919050565b7f45524332303a206d696e7420746f20746865207a65726f206164647265737300600082015250565b600062001065601f8362000e8a565b915062001072826200102d565b602082019050919050565b60006020820190508181036000830152620010988162001056565b9050919050565b620010aa81620005a4565b82525050565b6000602082019050620010c760008301846200109f565b92915050565b60805160a05160c05160e051610100516125606200112e60003960008181610b5c015261114101526000818161068d01526108c50152600081816106ae01526107b301526000818161065f01526109040152600061084001526125606000f3fe6080604052600436106101a05760003560e01c806368b5f4f7116100ec578063a1883d261161008a578063b6d0ceca11610064578063b6d0ceca14610597578063b7293229146105c2578063dd62ed3e146105ed578063f2fde38b1461062a576101a7565b8063a1883d26146104f4578063a457c2d71461051d578063a9059cbb1461055a576101a7565b806379cc6790116100c657806379cc67901461045e5780638456cb59146104875780638da5cb5b1461049e57806395d89b41146104c9576101a7565b806368b5f4f7146103df57806370a082311461040a578063715018a614610447576101a7565b8063313ce567116101595780633f4ba83a116101335780633f4ba83a1461034957806342966c681461036057806345ef4e7c146103895780635c975abb146103b4576101a7565b8063313ce567146102b6578063355274ea146102e1578063395093511461030c576101a7565b806306fdde03146101b157806307071430146101dc578063095ea7b3146102075780631249c58b1461024457806318160ddd1461024e57806323b872dd14610279576101a7565b366101a757005b6101af610653565b005b3480156101bd57600080fd5b506101c661071d565b6040516101d39190611906565b60405180910390f35b3480156101e857600080fd5b506101f16107af565b6040516101fe9190611941565b60405180910390f35b34801561021357600080fd5b5061022e600480360381019061022991906119eb565b6107d7565b60405161023b9190611a46565b60405180910390f35b61024c610653565b005b34801561025a57600080fd5b506102636107fa565b6040516102709190611941565b60405180910390f35b34801561028557600080fd5b506102a0600480360381019061029b9190611a61565b610804565b6040516102ad9190611a46565b60405180910390f35b3480156102c257600080fd5b506102cb610833565b6040516102d89190611ad0565b60405180910390f35b3480156102ed57600080fd5b506102f661083c565b6040516103039190611941565b60405180910390f35b34801561031857600080fd5b50610333600480360381019061032e91906119eb565b610864565b6040516103409190611a46565b60405180910390f35b34801561035557600080fd5b5061035e61089b565b005b34801561036c57600080fd5b5061038760048036038101906103829190611aeb565b6108ad565b005b34801561039557600080fd5b5061039e6108c1565b6040516103ab9190611941565b60405180910390f35b3480156103c057600080fd5b506103c96108e9565b6040516103d69190611a46565b60405180910390f35b3480156103eb57600080fd5b506103f4610900565b6040516104019190611941565b60405180910390f35b34801561041657600080fd5b50610431600480360381019061042c9190611b18565b610928565b60405161043e9190611941565b60405180910390f35b34801561045357600080fd5b5061045c610970565b005b34801561046a57600080fd5b50610485600480360381019061048091906119eb565b610984565b005b34801561049357600080fd5b5061049c6109a4565b005b3480156104aa57600080fd5b506104b36109b6565b6040516104c09190611b54565b60405180910390f35b3480156104d557600080fd5b506104de6109e0565b6040516104eb9190611906565b60405180910390f35b34801561050057600080fd5b5061051b60048036038101906105169190611b18565b610a72565b005b34801561052957600080fd5b50610544600480360381019061053f91906119eb565b610abe565b6040516105519190611a46565b60405180910390f35b34801561056657600080fd5b50610581600480360381019061057c91906119eb565b610b35565b60405161058e9190611a46565b60405180910390f35b3480156105a357600080fd5b506105ac610b58565b6040516105b99190611b8c565b60405180910390f35b3480156105ce57600080fd5b506105d7610b80565b6040516105e49190611b54565b60405180910390f35b3480156105f957600080fd5b50610614600480360381019061060f9190611ba7565b610baa565b6040516106219190611941565b60405180910390f35b34801561063657600080fd5b50610651600480360381019061064c9190611b18565b610c31565b005b61065b610e7d565b60007f0000000000000000000000000000000000000000000000000000000000000000346106899190611c16565b90507f00000000000000000000000000000000000000000000000000000000000000007f00000000000000000000000000000000000000000000000000000000000000006106d79190611c58565b431115610710576040517f2d61912d00000000000000000000000000000000000000000000000000000000815260040160405180910390fd5b61071a3382610ec7565b50565b60606003805461072c90611cbb565b80601f016020809104026020016040519081016040528092919081815260200182805461075890611cbb565b80156107a55780601f1061077a576101008083540402835291602001916107a5565b820191906000526020600020905b81548152906001019060200180831161078857829003601f168201915b5050505050905090565b60007f0000000000000000000000000000000000000000000000000000000000000000905090565b6000806107e2610ed5565b90506107ef818585610edd565b600191505092915050565b6000600254905090565b60008061080f610ed5565b905061081c8582856110a6565b610827858585611132565b60019150509392505050565b60006012905090565b60007f0000000000000000000000000000000000000000000000000000000000000000905090565b60008061086f610ed5565b90506108908185856108818589610baa565b61088b9190611c58565b610edd565b600191505092915050565b6108a36111c4565b6108ab611242565b565b6108be6108b8610ed5565b826112a5565b50565b60007f0000000000000000000000000000000000000000000000000000000000000000905090565b6000600560009054906101000a900460ff16905090565b60007f0000000000000000000000000000000000000000000000000000000000000000905090565b60008060008373ffffffffffffffffffffffffffffffffffffffff1673ffffffffffffffffffffffffffffffffffffffff168152602001908152602001600020549050919050565b6109786111c4565b610982600061147b565b565b61099682610990610ed5565b836110a6565b6109a082826112a5565b5050565b6109ac6111c4565b6109b4611541565b565b6000600560019054906101000a900473ffffffffffffffffffffffffffffffffffffffff16905090565b6060600480546109ef90611cbb565b80601f0160208091040260200160405190810160405280929190818152602001828054610a1b90611cbb565b8015610a685780601f10610a3d57610100808354040283529160200191610a68565b820191906000526020600020905b815481529060010190602001808311610a4b57829003601f168201915b5050505050905090565b610a7a6111c4565b80600660006101000a81548173ffffffffffffffffffffffffffffffffffffffff021916908373ffffffffffffffffffffffffffffffffffffffff16021790555050565b600080610ac9610ed5565b90506000610ad78286610baa565b905083811015610b1c576040517f08c379a0000000000000000000000000000000000000000000000000000000008152600401610b1390611d5e565b60405180910390fd5b610b298286868403610edd565b60019250505092915050565b600080610b40610ed5565b9050610b4d818585611132565b600191505092915050565b60007f0000000000000000000000000000000000000000000000000000000000000000905090565b6000600660009054906101000a900473ffffffffffffffffffffffffffffffffffffffff16905090565b6000600160008473ffffffffffffffffffffffffffffffffffffffff1673ffffffffffffffffffffffffffffffffffffffff16815260200190815260200160002060008373ffffffffffffffffffffffffffffffffffffffff1673ffffffffffffffffffffffffffffffffffffffff16815260200190815260200160002054905092915050565b610c396111c4565b600073ffffffffffffffffffffffffffffffffffffffff168173ffffffffffffffffffffffffffffffffffffffff1603610ca8576040517f08c379a0000000000000000000000000000000000000000000000000000000008152600401610c9f90611df0565b60405180910390fd5b610cb18161147b565b50565b610cbc61083c565b81610cc56107fa565b610ccf9190611c58565b1115610d10576040517f08c379a0000000000000000000000000000000000000000000000000000000008152600401610d0790611e5c565b60405180910390fd5b610d1a8282610d1e565b5050565b600073ffffffffffffffffffffffffffffffffffffffff168273ffffffffffffffffffffffffffffffffffffffff1603610d8d576040517f08c379a0000000000000000000000000000000000000000000000000000000008152600401610d8490611ec8565b60405180910390fd5b610d99600083836115a4565b8060026000828254610dab9190611c58565b92505081905550806000808473ffffffffffffffffffffffffffffffffffffffff1673ffffffffffffffffffffffffffffffffffffffff1681526020019081526020016000206000828254610e009190611c58565b925050819055508173ffffffffffffffffffffffffffffffffffffffff16600073ffffffffffffffffffffffffffffffffffffffff167fddf252ad1be2c89b69c2b068fc378daa952ba7f163c4a11628f55a4df523b3ef83604051610e659190611941565b60405180910390a3610e79600083836115a9565b5050565b610e856108e9565b15610ec5576040517f08c379a0000000000000000000000000000000000000000000000000000000008152600401610ebc90611f34565b60405180910390fd5b565b610ed18282610cb4565b5050565b600033905090565b600073ffffffffffffffffffffffffffffffffffffffff168373ffffffffffffffffffffffffffffffffffffffff1603610f4c576040517f08c379a0000000000000000000000000000000000000000000000000000000008152600401610f4390611fc6565b60405180910390fd5b600073ffffffffffffffffffffffffffffffffffffffff168273ffffffffffffffffffffffffffffffffffffffff1603610fbb576040517f08c379a0000000000000000000000000000000000000000000000000000000008152600401610fb290612058565b60405180910390fd5b80600160008573ffffffffffffffffffffffffffffffffffffffff1673ffffffffffffffffffffffffffffffffffffffff16815260200190815260200160002060008473ffffffffffffffffffffffffffffffffffffffff1673ffffffffffffffffffffffffffffffffffffffff168152602001908152602001600020819055508173ffffffffffffffffffffffffffffffffffffffff168373ffffffffffffffffffffffffffffffffffffffff167f8c5be1e5ebec7d5bd14f71427d1e84f3dd0314c0f7b2291e5b200ac8c7c3b925836040516110999190611941565b60405180910390a3505050565b60006110b28484610baa565b90507fffffffffffffffffffffffffffffffffffffffffffffffffffffffffffffffff811461112c578181101561111e576040517f08c379a0000000000000000000000000000000000000000000000000000000008152600401611115906120c4565b60405180910390fd5b61112b8484848403610edd565b5b50505050565b61113a610e7d565b60006127107f000000000000000000000000000000000000000000000000000000000000000061ffff168361116f9190611c16565b6111799190612113565b90506111a884600660009054906101000a900473ffffffffffffffffffffffffffffffffffffffff16836115ae565b6111be848483856111b99190612144565b6115ae565b50505050565b6111cc610ed5565b73ffffffffffffffffffffffffffffffffffffffff166111ea6109b6565b73ffffffffffffffffffffffffffffffffffffffff1614611240576040517f08c379a0000000000000000000000000000000000000000000000000000000008152600401611237906121c4565b60405180910390fd5b565b61124a61182d565b6000600560006101000a81548160ff0219169083151502179055507f5db9ee0a495bf2e6ff9c91a7834c1ba4fdd244a5e8aa4e537bd38aeae4b073aa61128e610ed5565b60405161129b9190611b54565b60405180910390a1565b600073ffffffffffffffffffffffffffffffffffffffff168273ffffffffffffffffffffffffffffffffffffffff1603611314576040517f08c379a000000000000000000000000000000000000000000000000000000000815260040161130b90612256565b60405180910390fd5b611320826000836115a4565b60008060008473ffffffffffffffffffffffffffffffffffffffff1673ffffffffffffffffffffffffffffffffffffffff168152602001908152602001600020549050818110156113a6576040517f08c379a000000000000000000000000000000000000000000000000000000000815260040161139d906122e8565b60405180910390fd5b8181036000808573ffffffffffffffffffffffffffffffffffffffff1673ffffffffffffffffffffffffffffffffffffffff1681526020019081526020016000208190555081600260008282546113fd9190612144565b92505081905550600073ffffffffffffffffffffffffffffffffffffffff168373ffffffffffffffffffffffffffffffffffffffff167fddf252ad1be2c89b69c2b068fc378daa952ba7f163c4a11628f55a4df523b3ef846040516114629190611941565b60405180910390a3611476836000846115a9565b505050565b6000600560019054906101000a900473ffffffffffffffffffffffffffffffffffffffff16905081600560016101000a81548173ffffffffffffffffffffffffffffffffffffffff021916908373ffffffffffffffffffffffffffffffffffffffff1602179055508173ffffffffffffffffffffffffffffffffffffffff168173ffffffffffffffffffffffffffffffffffffffff167f8be0079c531659141344cd1fd0a4f28419497f9722a3daafe3b4186f6b6457e060405160405180910390a35050565b611549610e7d565b6001600560006101000a81548160ff0219169083151502179055507f62e78cea01bee320cd4e420270b5ea74000d11b0c9f74754ebdbfc544b05a25861158d610ed5565b60405161159a9190611b54565b60405180910390a1565b505050565b505050565b600073ffffffffffffffffffffffffffffffffffffffff168373ffffffffffffffffffffffffffffffffffffffff160361161d576040517f08c379a00000000000000000000000000000000000000000000000000000000081526004016116149061237a565b60405180910390fd5b600073ffffffffffffffffffffffffffffffffffffffff168273ffffffffffffffffffffffffffffffffffffffff160361168c576040517f08c379a00000000000000000000000000000000000000000000000000000000081526004016116839061240c565b60405180910390fd5b6116978383836115a4565b60008060008573ffffffffffffffffffffffffffffffffffffffff1673ffffffffffffffffffffffffffffffffffffffff1681526020019081526020016000205490508181101561171d576040517f08c379a00000000000000000000000000000000000000000000000000000000081526004016117149061249e565b60405180910390fd5b8181036000808673ffffffffffffffffffffffffffffffffffffffff1673ffffffffffffffffffffffffffffffffffffffff16815260200190815260200160002081905550816000808573ffffffffffffffffffffffffffffffffffffffff1673ffffffffffffffffffffffffffffffffffffffff16815260200190815260200160002060008282546117b09190611c58565b925050819055508273ffffffffffffffffffffffffffffffffffffffff168473ffffffffffffffffffffffffffffffffffffffff167fddf252ad1be2c89b69c2b068fc378daa952ba7f163c4a11628f55a4df523b3ef846040516118149190611941565b60405180910390a36118278484846115a9565b50505050565b6118356108e9565b611874576040517f08c379a000000000000000000000000000000000000000000000000000000000815260040161186b9061250a565b60405180910390fd5b565b600081519050919050565b600082825260208201905092915050565b60005b838110156118b0578082015181840152602081019050611895565b60008484015250505050565b6000601f19601f8301169050919050565b60006118d882611876565b6118e28185611881565b93506118f2818560208601611892565b6118fb816118bc565b840191505092915050565b6000602082019050818103600083015261192081846118cd565b905092915050565b6000819050919050565b61193b81611928565b82525050565b60006020820190506119566000830184611932565b92915050565b600080fd5b600073ffffffffffffffffffffffffffffffffffffffff82169050919050565b600061198c82611961565b9050919050565b61199c81611981565b81146119a757600080fd5b50565b6000813590506119b981611993565b92915050565b6119c881611928565b81146119d357600080fd5b50565b6000813590506119e5816119bf565b92915050565b60008060408385031215611a0257611a0161195c565b5b6000611a10858286016119aa565b9250506020611a21858286016119d6565b9150509250929050565b60008115159050919050565b611a4081611a2b565b82525050565b6000602082019050611a5b6000830184611a37565b92915050565b600080600060608486031215611a7a57611a7961195c565b5b6000611a88868287016119aa565b9350506020611a99868287016119aa565b9250506040611aaa868287016119d6565b9150509250925092565b600060ff82169050919050565b611aca81611ab4565b82525050565b6000602082019050611ae56000830184611ac1565b92915050565b600060208284031215611b0157611b0061195c565b5b6000611b0f848285016119d6565b91505092915050565b600060208284031215611b2e57611b2d61195c565b5b6000611b3c848285016119aa565b91505092915050565b611b4e81611981565b82525050565b6000602082019050611b696000830184611b45565b92915050565b600061ffff82169050919050565b611b8681611b6f565b82525050565b6000602082019050611ba16000830184611b7d565b92915050565b60008060408385031215611bbe57611bbd61195c565b5b6000611bcc858286016119aa565b9250506020611bdd858286016119aa565b9150509250929050565b7f4e487b7100000000000000000000000000000000000000000000000000000000600052601160045260246000fd5b6000611c2182611928565b9150611c2c83611928565b9250828202611c3a81611928565b91508282048414831517611c5157611c50611be7565b5b5092915050565b6000611c6382611928565b9150611c6e83611928565b9250828201905080821115611c8657611c85611be7565b5b92915050565b7f4e487b7100000000000000000000000000000000000000000000000000000000600052602260045260246000fd5b60006002820490506001821680611cd357607f821691505b602082108103611ce657611ce5611c8c565b5b50919050565b7f45524332303a2064656372656173656420616c6c6f77616e63652062656c6f7760008201527f207a65726f000000000000000000000000000000000000000000000000000000602082015250565b6000611d48602583611881565b9150611d5382611cec565b604082019050919050565b60006020820190508181036000830152611d7781611d3b565b9050919050565b7f4f776e61626c653a206e6577206f776e657220697320746865207a65726f206160008201527f6464726573730000000000000000000000000000000000000000000000000000602082015250565b6000611dda602683611881565b9150611de582611d7e565b604082019050919050565b60006020820190508181036000830152611e0981611dcd565b9050919050565b7f45524332304361707065643a2063617020657863656564656400000000000000600082015250565b6000611e46601983611881565b9150611e5182611e10565b602082019050919050565b60006020820190508181036000830152611e7581611e39565b9050919050565b7f45524332303a206d696e7420746f20746865207a65726f206164647265737300600082015250565b6000611eb2601f83611881565b9150611ebd82611e7c565b602082019050919050565b60006020820190508181036000830152611ee181611ea5565b9050919050565b7f5061757361626c653a2070617573656400000000000000000000000000000000600082015250565b6000611f1e601083611881565b9150611f2982611ee8565b602082019050919050565b60006020820190508181036000830152611f4d81611f11565b9050919050565b7f45524332303a20617070726f76652066726f6d20746865207a65726f2061646460008201527f7265737300000000000000000000000000000000000000000000000000000000602082015250565b6000611fb0602483611881565b9150611fbb82611f54565b604082019050919050565b60006020820190508181036000830152611fdf81611fa3565b9050919050565b7f45524332303a20617070726f766520746f20746865207a65726f20616464726560008201527f7373000000000000000000000000000000000000000000000000000000000000602082015250565b6000612042602283611881565b915061204d82611fe6565b604082019050919050565b6000602082019050818103600083015261207181612035565b9050919050565b7f45524332303a20696e73756666696369656e7420616c6c6f77616e6365000000600082015250565b60006120ae601d83611881565b91506120b982612078565b602082019050919050565b600060208201905081810360008301526120dd816120a1565b9050919050565b7f4e487b7100000000000000000000000000000000000000000000000000000000600052601260045260246000fd5b600061211e82611928565b915061212983611928565b925082612139576121386120e4565b5b828204905092915050565b600061214f82611928565b915061215a83611928565b925082820390508181111561217257612171611be7565b5b92915050565b7f4f776e61626c653a2063616c6c6572206973206e6f7420746865206f776e6572600082015250565b60006121ae602083611881565b91506121b982612178565b602082019050919050565b600060208201905081810360008301526121dd816121a1565b9050919050565b7f45524332303a206275726e2066726f6d20746865207a65726f2061646472657360008201527f7300000000000000000000000000000000000000000000000000000000000000602082015250565b6000612240602183611881565b915061224b826121e4565b604082019050919050565b6000602082019050818103600083015261226f81612233565b9050919050565b7f45524332303a206275726e20616d6f756e7420657863656564732062616c616e60008201527f6365000000000000000000000000000000000000000000000000000000000000602082015250565b60006122d2602283611881565b91506122dd82612276565b604082019050919050565b60006020820190508181036000830152612301816122c5565b9050919050565b7f45524332303a207472616e736665722066726f6d20746865207a65726f20616460008201527f6472657373000000000000000000000000000000000000000000000000000000602082015250565b6000612364602583611881565b915061236f82612308565b604082019050919050565b6000602082019050818103600083015261239381612357565b9050919050565b7f45524332303a207472616e7366657220746f20746865207a65726f206164647260008201527f6573730000000000000000000000000000000000000000000000000000000000602082015250565b60006123f6602383611881565b91506124018261239a565b604082019050919050565b60006020820190508181036000830152612425816123e9565b9050919050565b7f45524332303a207472616e7366657220616d6f756e742065786365656473206260008201527f616c616e63650000000000000000000000000000000000000000000000000000602082015250565b6000612488602683611881565b91506124938261242c565b604082019050919050565b600060208201905081810360008301526124b78161247b565b9050919050565b7f5061757361626c653a206e6f7420706175736564000000000000000000000000600082015250565b60006124f4601483611881565b91506124ff826124be565b602082019050919050565b60006020820190508181036000830152612523816124e7565b905091905056fea2646970667358221220cbedb86a7166bd571f589d9ab41ab4270188ce605e0dbcf5d3796edbd32f5c0e64736f6c6343000811003360e06040523480156200001157600080fd5b5060405162001496380380620014968339818101604052810190620000379190620001cd565b600073ffffffffffffffffffffffffffffffffffffffff168373ffffffffffffffffffffffffffffffffffffffff1603620000a9576040517f08c379a0000000000000000000000000000000000000000000000000000000008152600401620000a090620002b0565b60405180910390fd5b8273ffffffffffffffffffffffffffffffffffffffff1660808173ffffffffffffffffffffffffffffffffffffffff16815250508167ffffffffffffffff1660a08167ffffffffffffffff16815250508067ffffffffffffffff1660c08167ffffffffffffffff1681525050505050620002d2565b600080fd5b600073ffffffffffffffffffffffffffffffffffffffff82169050919050565b6000620001508262000123565b9050919050565b620001628162000143565b81146200016e57600080fd5b50565b600081519050620001828162000157565b92915050565b600067ffffffffffffffff82169050919050565b620001a78162000188565b8114620001b357600080fd5b50565b600081519050620001c7816200019c565b92915050565b600080600060608486031215620001e957620001e86200011e565b5b6000620001f98682870162000171565b93505060206200020c86828701620001b6565b92505060406200021f86828701620001b6565b9150509250925092565b600082825260208201905092915050565b7f56657374696e6757616c6c65743a2062656e6566696369617279206973207a6560008201527f726f206164647265737300000000000000000000000000000000000000000000602082015250565b600062000298602a8362000229565b9150620002a5826200023a565b604082019050919050565b60006020820190508181036000830152620002cb8162000289565b9050919050565b60805160a05160c0516111946200030260003960006102620152600061050b0152600061036f01526111946000f3fe60806040526004361061008a5760003560e01c8063810ec23b11610059578063810ec23b1461015257806386d1a69f1461018f57806396132521146101a65780639852595c146101d1578063be9a65551461020e57610091565b80630a17b06b146100965780630fb5a6b4146100d357806319165587146100fe57806338af3eed1461012757610091565b3661009157005b600080fd5b3480156100a257600080fd5b506100bd60048036038101906100b89190610a0f565b610239565b6040516100ca9190610a55565b60405180910390f35b3480156100df57600080fd5b506100e861025e565b6040516100f59190610a55565b60405180910390f35b34801561010a57600080fd5b5061012560048036038101906101209190610ace565b610290565b005b34801561013357600080fd5b5061013c61036b565b6040516101499190610b0a565b60405180910390f35b34801561015e57600080fd5b5061017960048036038101906101749190610b25565b610393565b6040516101869190610a55565b60405180910390f35b34801561019b57600080fd5b506101a4610433565b005b3480156101b257600080fd5b506101bb6104b5565b6040516101c89190610a55565b60405180910390f35b3480156101dd57600080fd5b506101f860048036038101906101f39190610ace565b6104be565b6040516102059190610a55565b60405180910390f35b34801561021a57600080fd5b50610223610507565b6040516102309190610a55565b60405180910390f35b60006102576102466104b5565b476102519190610b94565b83610539565b9050919050565b60007f000000000000000000000000000000000000000000000000000000000000000067ffffffffffffffff16905090565b600061029b826104be565b6102a58342610393565b6102af9190610bc8565b905080600160008473ffffffffffffffffffffffffffffffffffffffff1673ffffffffffffffffffffffffffffffffffffffff16815260200190815260200160002060008282546103009190610b94565b925050819055508173ffffffffffffffffffffffffffffffffffffffff167fc0e523490dd523c33b1878c9eb14ff46991e3f5b2cd33710918618f2a39cba1b8260405161034d9190610a55565b60405180910390a26103678261036161036b565b836105d3565b5050565b60007f0000000000000000000000000000000000000000000000000000000000000000905090565b600061042b6103a1846104be565b8473ffffffffffffffffffffffffffffffffffffffff166370a08231306040518263ffffffff1660e01b81526004016103da9190610b0a565b602060405180830381865afa1580156103f7573d6000803e3d6000fd5b505050506040513d601f19601f8201168201806040525081019061041b9190610c28565b6104259190610b94565b83610539565b905092915050565b600061043d6104b5565b61044642610239565b6104509190610bc8565b9050806000808282546104639190610b94565b925050819055507fda9d4e5f101b8b9b1c5b76d0c5a9f7923571acfc02376aa076b75a8c080c956b816040516104999190610a55565b60405180910390a16104b26104ac61036b565b82610659565b50565b60008054905090565b6000600160008373ffffffffffffffffffffffffffffffffffffffff1673ffffffffffffffffffffffffffffffffffffffff168152602001908152602001600020549050919050565b60007f000000000000000000000000000000000000000000000000000000000000000067ffffffffffffffff16905090565b6000610543610507565b8267ffffffffffffffff16101561055d57600090506105cd565b61056561025e565b61056d610507565b6105779190610b94565b8267ffffffffffffffff161115610590578290506105cd565b61059861025e565b6105a0610507565b8367ffffffffffffffff166105b59190610bc8565b846105c09190610c55565b6105ca9190610cc6565b90505b92915050565b6106548363a9059cbb60e01b84846040516024016105f2929190610cf7565b604051602081830303815290604052907bffffffffffffffffffffffffffffffffffffffffffffffffffffffff19166020820180517bffffffffffffffffffffffffffffffffffffffffffffffffffffffff838183161783525050505061074d565b505050565b8047101561069c576040517f08c379a000000000000000000000000000000000000000000000000000000000815260040161069390610d7d565b60405180910390fd5b60008273ffffffffffffffffffffffffffffffffffffffff16826040516106c290610dce565b60006040518083038185875af1925050503d80600081146106ff576040519150601f19603f3d011682016040523d82523d6000602084013e610704565b606091505b5050905080610748576040517f08c379a000000000000000000000000000000000000000000000000000000000815260040161073f90610e55565b60405180910390fd5b505050565b60006107af826040518060400160405280602081526020017f5361666545524332303a206c6f772d6c6576656c2063616c6c206661696c65648152508573ffffffffffffffffffffffffffffffffffffffff166108149092919063ffffffff16565b905060008151111561080f57808060200190518101906107cf9190610ead565b61080e576040517f08c379a000000000000000000000000000000000000000000000000000000000815260040161080590610f4c565b60405180910390fd5b5b505050565b6060610823848460008561082c565b90509392505050565b606082471015610871576040517f08c379a000000000000000000000000000000000000000000000000000000000815260040161086890610fde565b60405180910390fd5b61087a85610940565b6108b9576040517f08c379a00000000000000000000000000000000000000000000000000000000081526004016108b09061104a565b60405180910390fd5b6000808673ffffffffffffffffffffffffffffffffffffffff1685876040516108e291906110d0565b60006040518083038185875af1925050503d806000811461091f576040519150601f19603f3d011682016040523d82523d6000602084013e610924565b606091505b5091509150610934828286610963565b92505050949350505050565b6000808273ffffffffffffffffffffffffffffffffffffffff163b119050919050565b60608315610973578290506109c3565b6000835111156109865782518084602001fd5b816040517f08c379a00000000000000000000000000000000000000000000000000000000081526004016109ba919061113c565b60405180910390fd5b9392505050565b600080fd5b600067ffffffffffffffff82169050919050565b6109ec816109cf565b81146109f757600080fd5b50565b600081359050610a09816109e3565b92915050565b600060208284031215610a2557610a246109ca565b5b6000610a33848285016109fa565b91505092915050565b6000819050919050565b610a4f81610a3c565b82525050565b6000602082019050610a6a6000830184610a46565b92915050565b600073ffffffffffffffffffffffffffffffffffffffff82169050919050565b6000610a9b82610a70565b9050919050565b610aab81610a90565b8114610ab657600080fd5b50565b600081359050610ac881610aa2565b92915050565b600060208284031215610ae457610ae36109ca565b5b6000610af284828501610ab9565b91505092915050565b610b0481610a90565b82525050565b6000602082019050610b1f6000830184610afb565b92915050565b60008060408385031215610b3c57610b3b6109ca565b5b6000610b4a85828601610ab9565b9250506020610b5b858286016109fa565b9150509250929050565b7f4e487b7100000000000000000000000000000000000000000000000000000000600052601160045260246000fd5b6000610b9f82610a3c565b9150610baa83610a3c565b9250828201905080821115610bc257610bc1610b65565b5b92915050565b6000610bd382610a3c565b9150610bde83610a3c565b9250828203905081811115610bf657610bf5610b65565b5b92915050565b610c0581610a3c565b8114610c1057600080fd5b50565b600081519050610c2281610bfc565b92915050565b600060208284031215610c3e57610c3d6109ca565b5b6000610c4c84828501610c13565b91505092915050565b6000610c6082610a3c565b9150610c6b83610a3c565b9250828202610c7981610a3c565b91508282048414831517610c9057610c8f610b65565b5b5092915050565b7f4e487b7100000000000000000000000000000000000000000000000000000000600052601260045260246000fd5b6000610cd182610a3c565b9150610cdc83610a3c565b925082610cec57610ceb610c97565b5b828204905092915050565b6000604082019050610d0c6000830185610afb565b610d196020830184610a46565b9392505050565b600082825260208201905092915050565b7f416464726573733a20696e73756666696369656e742062616c616e6365000000600082015250565b6000610d67601d83610d20565b9150610d7282610d31565b602082019050919050565b60006020820190508181036000830152610d9681610d5a565b9050919050565b600081905092915050565b50565b6000610db8600083610d9d565b9150610dc382610da8565b600082019050919050565b6000610dd982610dab565b9150819050919050565b7f416464726573733a20756e61626c6520746f2073656e642076616c75652c207260008201527f6563697069656e74206d61792068617665207265766572746564000000000000602082015250565b6000610e3f603a83610d20565b9150610e4a82610de3565b604082019050919050565b60006020820190508181036000830152610e6e81610e32565b9050919050565b60008115159050919050565b610e8a81610e75565b8114610e9557600080fd5b50565b600081519050610ea781610e81565b92915050565b600060208284031215610ec357610ec26109ca565b5b6000610ed184828501610e98565b91505092915050565b7f5361666545524332303a204552433230206f7065726174696f6e20646964206e60008201527f6f74207375636365656400000000000000000000000000000000000000000000602082015250565b6000610f36602a83610d20565b9150610f4182610eda565b604082019050919050565b60006020820190508181036000830152610f6581610f29565b9050919050565b7f416464726573733a20696e73756666696369656e742062616c616e636520666f60008201527f722063616c6c0000000000000000000000000000000000000000000000000000602082015250565b6000610fc8602683610d20565b9150610fd382610f6c565b604082019050919050565b60006020820190508181036000830152610ff781610fbb565b9050919050565b7f416464726573733a2063616c6c20746f206e6f6e2d636f6e7472616374000000600082015250565b6000611034601d83610d20565b915061103f82610ffe565b602082019050919050565b6000602082019050818103600083015261106381611027565b9050919050565b600081519050919050565b60005b83811015611093578082015181840152602081019050611078565b60008484015250505050565b60006110aa8261106a565b6110b48185610d9d565b93506110c4818560208601611075565b80840191505092915050565b60006110dc828461109f565b915081905092915050565b600081519050919050565b6000601f19601f8301169050919050565b600061110e826110e7565b6111188185610d20565b9350611128818560208601611075565b611131816110f2565b840191505092915050565b600060208201905081810360008301526111568184611103565b90509291505056fea2646970667358221220d4333149190cd501d982e3c1de0ee80ebb7054f1e7dee0df7a581be5e9baa76964736f6c63430008110033",
  "devdoc": {
    "author": "BowTiedIronman",
    "kind": "dev",
    "methods": {
      "allowance(address,address)": {
        "details": "See {IERC20-allowance}."
      },
      "approve(address,uint256)": {
        "details": "See {IERC20-approve}. NOTE: If `amount` is the maximum `uint256`, the allowance is not updated on `transferFrom`. This is semantically equivalent to an infinite approval. Requirements: - `spender` cannot be the zero address."
      },
      "balanceOf(address)": {
        "details": "See {IERC20-balanceOf}."
      },
      "burn(uint256)": {
        "details": "Destroys `amount` tokens from the caller. See {ERC20-_burn}."
      },
      "burnFrom(address,uint256)": {
        "details": "Destroys `amount` tokens from `account`, deducting from the caller's allowance. See {ERC20-_burn} and {ERC20-allowance}. Requirements: - the caller must have allowance for ``accounts``'s tokens of at least `amount`."
      },
      "cap()": {
        "details": "Returns the cap on the token's total supply."
      },
      "decimals()": {
        "details": "Returns the number of decimals used to get its user representation. For example, if `decimals` equals `2`, a balance of `505` tokens should be displayed to a user as `5.05` (`505 / 10 ** 2`). Tokens usually opt for a value of 18, imitating the relationship between Ether and Wei. This is the value {ERC20} uses, unless this function is overridden; NOTE: This information is only used for _display_ purposes: it in no way affects any of the arithmetic of the contract, including {IERC20-balanceOf} and {IERC20-transfer}."
      },
      "decreaseAllowance(address,uint256)": {
        "details": "Atomically decreases the allowance granted to `spender` by the caller. This is an alternative to {approve} that can be used as a mitigation for problems described in {IERC20-approve}. Emits an {Approval} event indicating the updated allowance. Requirements: - `spender` cannot be the zero address. - `spender` must have allowance for the caller of at least `subtractedValue`."
      },
      "increaseAllowance(address,uint256)": {
        "details": "Atomically increases the allowance granted to `spender` by the caller. This is an alternative to {approve} that can be used as a mitigation for problems described in {IERC20-approve}. Emits an {Approval} event indicating the updated allowance. Requirements: - `spender` cannot be the zero address."
      },
      "name()": {
        "details": "Returns the name of the token."
      },
      "owner()": {
        "details": "Returns the address of the current owner."
      },
      "paused()": {
        "details": "Returns true if the contract is paused, and false otherwise."
      },
      "renounceOwnership()": {
        "details": "Leaves the contract without owner. It will not be possible to call `onlyOwner` functions anymore. Can only be called by the current owner. NOTE: Renouncing ownership will leave the contract without an owner, thereby removing any functionality that is only available to the owner."
      },
      "symbol()": {
        "details": "Returns the symbol of the token, usually a shorter version of the name."
      },
      "totalSupply()": {
        "details": "See {IERC20-totalSupply}."
      },
      "transfer(address,uint256)": {
        "details": "See {IERC20-transfer}. Requirements: - `to` cannot be the zero address. - the caller must have a balance of at least `amount`."
      },
      "transferFrom(address,address,uint256)": {
        "details": "See {IERC20-transferFrom}. Emits an {Approval} event indicating the updated allowance. This is not required by the EIP. See the note at the beginning of {ERC20}. NOTE: Does not update the allowance if the current allowance is the maximum `uint256`. Requirements: - `from` and `to` cannot be the zero address. - `from` must have a balance of at least `amount`. - the caller must have allowance for ``from``'s tokens of at least `amount`."
      },
      "transferOwnership(address)": {
        "details": "Transfers ownership of the contract to a new account (`newOwner`). Can only be called by the current owner."
      }
    },
    "title": "IcoToken",
    "version": 1
  },
  "userdoc": {
    "kind": "user",
    "methods": {
      "getValueInEth()": {
        "notice": "Getter Functions "
      },
      "mint()": {
        "notice": "Mints tokens when not paused, after ico, or beyond cap"
      }
    },
    "notice": "A pausable, burnable, capped ICO with vested tokens for insiders. With taxed transfers. ",
    "version": 1
  },
  "storageLayout": {
    "storage": [
      {
        "astId": 528,
        "contract": "contracts/ICOToken.sol:IcoToken",
        "label": "_balances",
        "offset": 0,
        "slot": "0",
        "type": "t_mapping(t_address,t_uint256)"
      },
      {
        "astId": 534,
        "contract": "contracts/ICOToken.sol:IcoToken",
        "label": "_allowances",
        "offset": 0,
        "slot": "1",
        "type": "t_mapping(t_address,t_mapping(t_address,t_uint256))"
      },
      {
        "astId": 536,
        "contract": "contracts/ICOToken.sol:IcoToken",
        "label": "_totalSupply",
        "offset": 0,
        "slot": "2",
        "type": "t_uint256"
      },
      {
        "astId": 538,
        "contract": "contracts/ICOToken.sol:IcoToken",
        "label": "_name",
        "offset": 0,
        "slot": "3",
        "type": "t_string_storage"
      },
      {
        "astId": 540,
        "contract": "contracts/ICOToken.sol:IcoToken",
        "label": "_symbol",
        "offset": 0,
        "slot": "4",
        "type": "t_string_storage"
      },
      {
        "astId": 422,
        "contract": "contracts/ICOToken.sol:IcoToken",
        "label": "_paused",
        "offset": 0,
        "slot": "5",
        "type": "t_bool"
      },
      {
        "astId": 7,
        "contract": "contracts/ICOToken.sol:IcoToken",
        "label": "_owner",
        "offset": 1,
        "slot": "5",
        "type": "t_address"
      },
      {
        "astId": 2481,
        "contract": "contracts/ICOToken.sol:IcoToken",
        "label": "s_taxAddress",
        "offset": 0,
        "slot": "6",
        "type": "t_address"
      }
    ],
    "types": {
      "t_address": {
        "encoding": "inplace",
        "label": "address",
        "numberOfBytes": "20"
      },
      "t_bool": {
        "encoding": "inplace",
        "label": "bool",
        "numberOfBytes": "1"
      },
      "t_mapping(t_address,t_mapping(t_address,t_uint256))": {
        "encoding": "mapping",
        "key": "t_address",
        "label": "mapping(address => mapping(address => uint256))",
        "numberOfBytes": "32",
        "value": "t_mapping(t_address,t_uint256)"
      },
      "t_mapping(t_address,t_uint256)": {
        "encoding": "mapping",
        "key": "t_address",
        "label": "mapping(address => uint256)",
        "numberOfBytes": "32",
        "value": "t_uint256"
      },
      "t_string_storage": {
        "encoding": "bytes",
        "label": "string",
        "numberOfBytes": "32"
      },
      "t_uint256": {
        "encoding": "inplace",
        "label": "uint256",
        "numberOfBytes": "32"
      }
    }
  }
}